:100000000C942A000C9447000C9447000C94470071
:100010000C9447000C9447000C9447000C94470044
:100020000C9447000C9447000C9447000C94470034
:100030000C9447000C9447000C9447000C94470024
:100040000C9447000C9447000C9447000C94470014
:100050000C94470011241FBECFE5D8E0DEBFCDBF12
:1000600011E0A0E6B0E0E8E3F8E002C005900D92F0
:10007000A230B107D9F711E0A2E0B1E001C01D92B2
:10008000A031B107E1F70E94C4030C941A040C9448
:1000900000002CB321FDFDCF9FBB8EBBE09A8DB33A
:1000A00008952CB321FDFDCF9FBB8EBB6DBBE29AA3
:1000B000E19A08958A988B988C988D9882B38C6376
:1000C00082BBBC9ABD9ABE9ABF9A0895E0E088B3FD
:1000D0008F7088BBEE2321F488B3806E88BB0CC080
:1000E000E13021F488B3806D88BB0BC0E23021F48D
:1000F00088B3806B88BB05C0E33019F488B3806790
:1001000088BB80B382FD09C0F0E0EE0FFF1FEE0F49
:10011000FF1FE05AFF4F8081089580B383FD09C01F
:10012000F0E0EE0FFF1FEE0FFF1FE05AFF4F81813F
:10013000089580B384FD09C0F0E0EE0FFF1FEE0FBD
:10014000FF1FE05AFF4F8281089580B385FD09C0EB
:10015000F0E0EE0FFF1FEE0FFF1FE05AFF4F83810D
:1001600008958FE99FE00197F1F700C00000EF5F6D
:10017000E43009F0ACCF8FEF0895D998982F92957D
:100180009F7090FF02C0DB9A01C0DB98982F929578
:100190009695977090FF02C0DC9A01C0DC98982F6A
:1001A000929596959695937090FF02C0DD9A01C046
:1001B000DD98882314F4DE9A01C0DE98DA9AEFE91C
:1001C000FFE03197F1F700C00000DA98EFE9FFE0B7
:1001D0003197F1F700C0000080FF02C0DB9A01C038
:1001E000DB98982F969590FF02C0DC9A01C0DC98AE
:1001F000982F9695969590FF02C0DD9A01C0DD98E4
:1002000086958695869580FF02C0DE9A01C0DE98AD
:10021000DA9A8FE99FE00197F1F700C00000DA98C1
:10022000EFE9FFE03197F1F700C0000008958AB3CD
:100230008E678ABB83E00E94BD008FE79EE3019733
:10024000F1F700C0000083E00E94BD00AFE7BEE30D
:100250001197F1F700C0000083E00E94BD008FE716
:100260009EE30197F1F700C0000082E00E94BD000C
:1002700088E20E94BD0088E00E94BD0081E00E94EB
:10028000BD0086E00E94BD008FEF99EFA0E0815095
:100290009040A040E1F700C000008CE00E94BD004B
:1002A0000895D99A982F92959F7090FF02C0DB9A7B
:1002B00001C0DB98982F92959695977090FF02C099
:1002C000DC9A01C0DC98982F92959695969593703C
:1002D00090FF02C0DD9A01C0DD98882314F4DE9AF5
:1002E00001C0DE98DA9AEFE9FFE03197F1F700C03C
:1002F0000000DA98EFE9FFE03197F1F700C0000065
:1003000080FF02C0DB9A01C0DB98982F969590FF82
:1003100002C0DC9A01C0DC98982F9695969590FFC4
:1003200002C0DD9A01C0DD9886958695869580FF8E
:1003300002C0DE9A01C0DE98DA9A8FE99FE0019749
:10034000F1F700C00000DA98EFE9FFE03197F1F72C
:1003500000C0000008950F931F93CF938C01FC0100
:100360008081882351F0C0E00E945101CF5FF801E5
:10037000EC0FF11D80818823B9F7CF911F910F9168
:1003800008958F929F92AF92BF92EF92FF921F9328
:10039000CF93DF93CDB7DEB72A970FB6F894DEBFC1
:1003A0000FBECDBFDC01CB01AE014F5F5F4F2AE036
:1003B000FA0111922A95E9F70097A105B10521F4F8
:1003C00080E30E94510138C010E00F2EFAE08F2E1A
:1003D000F0E09F2EF0E0AF2EF0E0BF2EF02DE12EEA
:1003E000FF24E7FCF09421E030E02C0F3D1FE20EEB
:1003F000F31EBC01CD01A50194010E94F803605DCC
:10040000F7016083822F932FA42FB52F1F5F0097D2
:10041000A105B10521F711507AF0E12FFF27E7FD83
:10042000F09521E030E02C0F3D1FE20FF31F80819B
:100430000E945101115088F72A960FB6F894DEBF3A
:100440000FBECDBFDF91CF911F91FF90EF90BF9076
:10045000AF909F908F900895CF93DF93D82F0E94F5
:100460006600C82F8F3F09F48BC18E3409F488C110
:1004700080910201823009F442C0833030F4882335
:1004800059F0813009F07CC122C0833009F44FC09B
:10049000843009F075C12BC183EC0E94BD008C2F04
:1004A0000E9451018EE20E9451018FEF93ECA9E06E
:1004B00081509040A040E1F700C00000C053C093BD
:1004C0000801809102018F5F8093020159C18C2F36
:1004D0000E9451018EE20E945101C053C093060157
:1004E0008FEF93ECA9E081509040A040E1F700C06D
:1004F0000000809102018F5F8093020141C18C2F27
:100500000E9451018EE20E945101C053C0930D011F
:100510008FEF93ECA9E081509040A040E1F700C03C
:100520000000809102018F5F8093020129C18C2F0E
:100530000E945101C053C09304018FEF93ECA9E0D6
:1005400081509040A040E1F700C00000DD2309F099
:1005500046C090910801809105019817B1F59091DE
:10056000060180910B019817F1F490910D01809193
:100570000F019817C1F480910C01C817A1F481E014
:100580000E94BD0080E790E00E94AB0180EC0E94D9
:10059000BD008AE790E00E94AB01809102018F5F6D
:1005A00080930201EDC09091060180910B01981794
:1005B00061F490910D0180910F01981731F49091A1
:1005C000040180910C01981739F181E00E94BD006F
:1005D00086E890E00E94AB0110920201D1C0D130B8
:1005E000D9F48091080180930901809106018093DC
:1005F000070180910D0180930E0180910401809389
:100600000A0181E00E94BD0086E990E00E94AB01F2
:1006100010920201D2E0B4C0D23009F0B1C06091B2
:10062000080180910901681709F056C090910601F0
:10063000809107019817E9F590910D0180910E01C5
:100640009817B9F59091040180910A01981789F5DE
:100650008AE090E00E9451008BE090E060910701F9
:100660000E9451008CE090E060910E010E945100C8
:100670008DE090E060910A010E94510081E00E94AB
:10068000BD0087EA90E00E94AB018FEF99E6A8E1F8
:1006900081509040A040E1F700C0000081E00E943E
:1006A000BD0088EB90E00E94AB0110920201D0E007
:1006B00067C09091060180910701981769F49091A5
:1006C0000D0180910E01981739F4909104018091E9
:1006D0000A01981709F454C081E00E94BD0086E821
:1006E00090E00E94AB0110920201D1E049C0C334F6
:1006F000A1F481E00E94BD0089EC90E00E94AB0172
:100700008FEF93ECA9E081509040A040E1F700C04A
:10071000000010920201D1E033C0CF34F9F4AC9A5A
:1007200081E00E94BD0082E80E94BD0088ED90E05B
:100730000E94AB018FEF93EDA0E381509040A04069
:10074000E1F700C00000AC9881E00E94BD0085EE9A
:1007500090E00E94AB011092020112C081E00E9461
:10076000BD0086EF90E00E94AB018FEF93ECA9E013
:1007700081509040A040E1F700C0000010920201BB
:100780008D2FDF91CF910895A49A0E9417010E94A6
:100790005A0081E00E94BD0088EB90E00E94AB010E
:1007A0008FEF99E6A8E181509040A040E1F700C0AA
:1007B00000008AE090E00E944900809305018BE0F0
:1007C00090E00E94490080930B018CE090E00E9431
:1007D000490080930F018DE090E00E9449008093D2
:1007E0000C01809103010E942C0280930301E1CF50
:1007F000A1E21A2EAA1BBB1BFD010DC0AA1FBB1F25
:10080000EE1FFF1FA217B307E407F50720F0A21B96
:10081000B30BE40BF50B661F771F881F991F1A9403
:1008200069F760957095809590959B01AC01BD012D
:08083000CF010895F894FFCFF9
:100838004E3938374E3635344E3332314E4F3043D9
:100848006F20746F206F70656E006320746F206373
:1008580068616E67650077726F6E672074727920C1
:10086800616761696E00706C7A20636F6E66697289
:100878006D20706173730070617373776F72642099
:100888006368616E67656400557220342D6469671A
:10089800697420706173732E007772697465206EB5
:1008A80065772070617373007361666520697320D2
:1008B8006F70656E00757220342D646967697420E5
:1008C800706173732E004572726F72207265747254
:0208D8007900A5
:00000001FF
